{"contracts/OffGridCore.sol":{"OffGridCore":{"abi":[{"inputs":[{"internalType":"address payable","name":"_gameCoin","type":"address"},{"internalType":"uint256","name":"_entryFeeCoins","type":"uint256"},{"internalType":"uint256","name":"_platformFeePercent","type":"uint256"}],"stateMutability":"nonpayable","type":"constructor"},{"inputs":[{"internalType":"address","name":"owner","type":"address"}],"name":"OwnableInvalidOwner","type":"error"},{"inputs":[{"internalType":"address","name":"account","type":"address"}],"name":"OwnableUnauthorizedAccount","type":"error"},{"inputs":[],"name":"ReentrancyGuardReentrantCall","type":"error"},{"anonymous":false,"inputs":[{"indexed":true,"internalType":"bytes32","name":"raceId","type":"bytes32"},{"indexed":true,"internalType":"address","name":"user","type":"address"},{"indexed":false,"internalType":"uint256","name":"feeCoins","type":"uint256"}],"name":"EntryRecorded","type":"event"},{"anonymous":false,"inputs":[{"indexed":true,"internalType":"address","name":"previousOwner","type":"address"},{"indexed":true,"internalType":"address","name":"newOwner","type":"address"}],"name":"OwnershipTransferred","type":"event"},{"anonymous":false,"inputs":[{"indexed":true,"internalType":"bytes32","name":"raceId","type":"bytes32"}],"name":"RaceCreated","type":"event"},{"anonymous":false,"inputs":[{"indexed":true,"internalType":"bytes32","name":"raceId","type":"bytes32"},{"indexed":false,"internalType":"uint256","name":"totalPool","type":"uint256"}],"name":"RaceSettled","type":"event"},{"anonymous":false,"inputs":[{"indexed":true,"internalType":"bytes32","name":"raceId","type":"bytes32"},{"indexed":true,"internalType":"address","name":"user","type":"address"},{"indexed":false,"internalType":"uint256","name":"amount","type":"uint256"}],"name":"RewardDistributed","type":"event"},{"inputs":[{"internalType":"bytes32","name":"raceId","type":"bytes32"}],"name":"createRace","outputs":[],"stateMutability":"nonpayable","type":"function"},{"inputs":[{"internalType":"address","name":"user","type":"address"},{"internalType":"uint256","name":"amountCoins","type":"uint256"}],"name":"distributeReward","outputs":[],"stateMutability":"nonpayable","type":"function"},{"inputs":[{"internalType":"bytes32","name":"raceId","type":"bytes32"},{"internalType":"address[]","name":"winners","type":"address[]"},{"internalType":"uint256[]","name":"shares","type":"uint256[]"}],"name":"distributeRewards","outputs":[],"stateMutability":"nonpayable","type":"function"},{"inputs":[{"internalType":"bytes32","name":"raceId","type":"bytes32"}],"name":"enterRace","outputs":[],"stateMutability":"nonpayable","type":"function"},{"inputs":[],"name":"entryFeeCoins","outputs":[{"internalType":"uint256","name":"","type":"uint256"}],"stateMutability":"view","type":"function"},{"inputs":[],"name":"gameCoin","outputs":[{"internalType":"contract GameCoin","name":"","type":"address"}],"stateMutability":"view","type":"function"},{"inputs":[{"internalType":"bytes32","name":"raceId","type":"bytes32"}],"name":"getParticipants","outputs":[{"internalType":"address[]","name":"","type":"address[]"}],"stateMutability":"view","type":"function"},{"inputs":[{"internalType":"bytes32","name":"raceId","type":"bytes32"}],"name":"getRacePool","outputs":[{"internalType":"uint256","name":"totalPool","type":"uint256"},{"internalType":"uint256","name":"entryCount","type":"uint256"},{"internalType":"bool","name":"isSettled","type":"bool"}],"stateMutability":"view","type":"function"},{"inputs":[{"internalType":"bytes32","name":"","type":"bytes32"},{"internalType":"address","name":"","type":"address"}],"name":"hasEntered","outputs":[{"internalType":"bool","name":"","type":"bool"}],"stateMutability":"view","type":"function"},{"inputs":[{"internalType":"bytes32","name":"raceId","type":"bytes32"},{"internalType":"address","name":"user","type":"address"}],"name":"hasUserEntered","outputs":[{"internalType":"bool","name":"","type":"bool"}],"stateMutability":"view","type":"function"},{"inputs":[],"name":"owner","outputs":[{"internalType":"address","name":"","type":"address"}],"stateMutability":"view","type":"function"},{"inputs":[],"name":"platformFeePercent","outputs":[{"internalType":"uint256","name":"","type":"uint256"}],"stateMutability":"view","type":"function"},{"inputs":[{"internalType":"bytes32","name":"","type":"bytes32"},{"internalType":"uint256","name":"","type":"uint256"}],"name":"raceParticipants","outputs":[{"internalType":"address","name":"","type":"address"}],"stateMutability":"view","type":"function"},{"inputs":[{"internalType":"bytes32","name":"","type":"bytes32"}],"name":"racePools","outputs":[{"internalType":"uint256","name":"totalPool","type":"uint256"},{"internalType":"uint256","name":"entryCount","type":"uint256"},{"internalType":"bool","name":"isSettled","type":"bool"},{"internalType":"bool","name":"exists","type":"bool"}],"stateMutability":"view","type":"function"},{"inputs":[],"name":"renounceOwnership","outputs":[],"stateMutability":"nonpayable","type":"function"},{"inputs":[{"internalType":"uint256","name":"_feeCoins","type":"uint256"}],"name":"setEntryFee","outputs":[],"stateMutability":"nonpayable","type":"function"},{"inputs":[{"internalType":"uint256","name":"_percent","type":"uint256"}],"name":"setPlatformFee","outputs":[],"stateMutability":"nonpayable","type":"function"},{"inputs":[{"internalType":"address","name":"newOwner","type":"address"}],"name":"transferOwnership","outputs":[],"stateMutability":"nonpayable","type":"function"},{"inputs":[{"internalType":"uint256","name":"amountCoins","type":"uint256"}],"name":"withdrawPlatformFees","outputs":[],"stateMutability":"nonpayable","type":"function"}],"evm":{"bytecode":{"linkReferences":{},"object":"608060405234801561001057600080fd5b5060405161145738038061145783398101604081905261002f916100ff565b338061005557604051631e4fbdf760e01b81526000600482015260240160405180910390fd5b61005e816100af565b5060017f9b779b17422d0df92223018b32b4d1fa46e071723d6817e2486d003becc55f0055600180546001600160a01b0319166001600160a01b039490941693909317909255600255600655610142565b600080546001600160a01b038381166001600160a01b0319831681178455604051919092169283917f8be0079c531659141344cd1fd0a4f28419497f9722a3daafe3b4186f6b6457e09190a35050565b60008060006060848603121561011457600080fd5b83516001600160a01b038116811461012b57600080fd5b602085015160409095015190969495509392505050565b611306806101516000396000f3fe608060405234801561001057600080fd5b50600436106101215760003560e01c806377482846116100ad578063c22c9b4a11610071578063c22c9b4a14610305578063eb770d0c14610318578063f2fde38b1461032b578063fa5618a61461033e578063ffe27f9d1461035157600080fd5b8063774828461461023357806389799d8d1461024a5780638c639a85146102885780638da5cb5b14610291578063bd0e32a5146102a257600080fd5b8063423e8434116100f4578063423e8434146101a25780635154a115146101f25780636aa214161461020557806370d2b17914610218578063715018a61461022b57600080fd5b80630b0235be1461012657806312e8e2c31461014f5780631ec8bb8c146101645780633b1ce35e14610177575b600080fd5b610139610134366004610fef565b610364565b6040516101469190611008565b60405180910390f35b61016261015d366004610fef565b6103d0565b005b610162610172366004611071565b61041d565b60015461018a906001600160a01b031681565b6040516001600160a01b039091168152602001610146565b6101d56101b0366004610fef565b600090815260036020526040902080546001820154600290920154909260ff90911690565b604080519384526020840192909252151590820152606001610146565b610162610200366004610fef565b6105aa565b610162610213366004610fef565b6106a2565b61018a61022636600461109b565b610752565b61016261078a565b61023c60025481565b604051908152602001610146565b6102786102583660046110bd565b600460209081526000928352604080842090915290825290205460ff1681565b6040519015158152602001610146565b61023c60065481565b6000546001600160a01b031661018a565b6102dd6102b0366004610fef565b60036020526000908152604090208054600182015460029092015490919060ff8082169161010090041684565b6040805194855260208501939093529015159183019190915215156060820152608001610146565b610162610313366004611135565b61079e565b610162610326366004610fef565b610b5c565b6101626103393660046111af565b610b69565b61016261034c366004610fef565b610ba7565b61027861035f3660046110bd565b610ef9565b6000818152600560209081526040918290208054835181840281018401909452808452606093928301828280156103c457602002820191906000526020600020905b81546001600160a01b031681526001909101906020018083116103a6575b50505050509050919050565b6103d8610f26565b601e8111156104185760405162461bcd60e51b81526020600482015260076024820152664d61782033302560c81b60448201526064015b60405180910390fd5b600655565b610425610f26565b600061043982670de0b6b3a76400006111e7565b6001546040516370a0823160e01b815230600482015291925082916001600160a01b03909116906370a0823190602401602060405180830381865afa158015610486573d6000803e3d6000fd5b505050506040513d601f19601f820116820180604052508101906104aa91906111fe565b10156104ec5760405162461bcd60e51b8152602060048201526011602482015270125b9cdd59999a58da595b9d081c1bdbdb607a1b604482015260640161040f565b60015460405163a9059cbb60e01b81526001600160a01b038581166004830152602482018490529091169063a9059cbb906044016020604051808303816000875af115801561053f573d6000803e3d6000fd5b505050506040513d601f19601f820116820180604052508101906105639190611217565b506040518281526001600160a01b038416906000907f8fa6abe1348f6561b9a60363efc5793e820b343dce49d00e37d01644d9268a779060200160405180910390a3505050565b6105b2610f26565b600081815260036020526040902060020154610100900460ff161561060f5760405162461bcd60e51b81526020600482015260136024820152725261636520616c72656164792065786973747360681b604482015260640161040f565b60408051608081018252600080825260208083018281528385018381526001606086018181528886526003909452868520955186559151918501919091555160029093018054915161ffff1990921693151561ff001916939093176101009115159190910217909155905182917f2c36c88c1d7d82016e26ac35813d7d2cffded6c6cba1c4d153dc55d9e3973a7f91a250565b6106aa610f26565b6001546001600160a01b031663a9059cbb6106cd6000546001600160a01b031690565b6106df84670de0b6b3a76400006111e7565b6040516001600160e01b031960e085901b1681526001600160a01b03909216600483015260248201526044016020604051808303816000875af115801561072a573d6000803e3d6000fd5b505050506040513d601f19601f8201168201806040525081019061074e9190611217565b5050565b6005602052816000526040600020818154811061076e57600080fd5b6000918252602090912001546001600160a01b03169150829050565b610792610f26565b61079c6000610f53565b565b6107a6610f26565b6107ae610fa3565b600085815260036020526040902060020154610100900460ff1661080a5760405162461bcd60e51b8152602060048201526013602482015272149858d948191bd95cc81b9bdd08195e1a5cdd606a1b604482015260640161040f565b60008581526003602052604090206002015460ff161561085e5760405162461bcd60e51b815260206004820152600f60248201526e105b1c9958591e481cd95d1d1b1959608a1b604482015260640161040f565b82811461089f5760405162461bcd60e51b815260206004820152600f60248201526e098cadccee8d040dad2e6dac2e8c6d608b1b604482015260640161040f565b60008581526003602052604081208054600654919290916064906108c390846111e7565b6108cd9190611239565b905060006108db828461125b565b90506000805b86811015610921578787828181106108fb576108fb61126e565b905060200201358261090d9190611284565b91508061091981611297565b9150506108e1565b5060648111156109685760405162461bcd60e51b815260206004820152601260248201527153686172657320657863656564203130302560701b604482015260640161040f565b60005b88811015610aed57600060648989848181106109895761098961126e565b905060200201358561099b91906111e7565b6109a59190611239565b90508015610ada5760006109c182670de0b6b3a76400006111e7565b6001549091506001600160a01b031663a9059cbb8d8d868181106109e7576109e761126e565b90506020020160208101906109fc91906111af565b6040516001600160e01b031960e084901b1681526001600160a01b039091166004820152602481018490526044016020604051808303816000875af1158015610a49573d6000803e3d6000fd5b505050506040513d601f19601f82011682018060405250810190610a6d9190611217565b508b8b84818110610a8057610a8061126e565b9050602002016020810190610a9591906111af565b6001600160a01b03168d7f8fa6abe1348f6561b9a60363efc5793e820b343dce49d00e37d01644d9268a7784604051610ad091815260200190565b60405180910390a3505b5080610ae581611297565b91505061096b565b5060028501805460ff191660011790556040518a907f615c60cb3393165876238cfa7f5c47df0eb15f9eb5329ad532bcdf58cf10d28d90610b319087815260200190565b60405180910390a25050505050610b5560016000805160206112b183398151915255565b5050505050565b610b64610f26565b600255565b610b71610f26565b6001600160a01b038116610b9b57604051631e4fbdf760e01b81526000600482015260240161040f565b610ba481610f53565b50565b610baf610fa3565b600081815260036020526040902060020154610100900460ff16610c0b5760405162461bcd60e51b8152602060048201526013602482015272149858d948191bd95cc81b9bdd08195e1a5cdd606a1b604482015260640161040f565b60008181526003602052604090206002015460ff1615610c645760405162461bcd60e51b8152602060048201526014602482015273149858d948185b1c9958591e481cd95d1d1b195960621b604482015260640161040f565b600081815260046020908152604080832033845290915290205460ff1615610cc05760405162461bcd60e51b815260206004820152600f60248201526e105b1c9958591e48195b9d195c9959608a1b604482015260640161040f565b6000600254670de0b6b3a7640000610cd891906111e7565b6001546040516370a0823160e01b815233600482015291925082916001600160a01b03909116906370a0823190602401602060405180830381865afa158015610d25573d6000803e3d6000fd5b505050506040513d601f19601f82011682018060405250810190610d4991906111fe565b1015610d905760405162461bcd60e51b8152602060048201526016602482015275496e73756666696369656e742047616d65436f696e7360501b604482015260640161040f565b6001546040516323b872dd60e01b8152336004820152306024820152604481018390526001600160a01b03909116906323b872dd906064016020604051808303816000875af1158015610de7573d6000803e3d6000fd5b505050506040513d601f19601f82011682018060405250810190610e0b9190611217565b5060008281526004602090815260408083203384528252808320805460ff1916600117905560025485845260039092528220805491929091610e4e908490611284565b90915550506000828152600360205260408120600101805491610e7083611297565b9091555050600082815260056020908152604080832080546001810182559084529282902090920180546001600160a01b0319163390811790915560025492519283529184917fb416ba8d4bfead9e01547fc614c02dad7e34bca27082229532ee251a56c89152910160405180910390a350610ba460016000805160206112b183398151915255565b60008281526004602090815260408083206001600160a01b038516845290915290205460ff165b92915050565b6000546001600160a01b0316331461079c5760405163118cdaa760e01b815233600482015260240161040f565b600080546001600160a01b038381166001600160a01b0319831681178455604051919092169283917f8be0079c531659141344cd1fd0a4f28419497f9722a3daafe3b4186f6b6457e09190a35050565b610fab610fbf565b60026000805160206112b183398151915255565b6000805160206112b18339815191525460020361079c57604051633ee5aeb560e01b815260040160405180910390fd5b60006020828403121561100157600080fd5b5035919050565b6020808252825182820181905260009190848201906040850190845b818110156110495783516001600160a01b031683529284019291840191600101611024565b50909695505050505050565b80356001600160a01b038116811461106c57600080fd5b919050565b6000806040838503121561108457600080fd5b61108d83611055565b946020939093013593505050565b600080604083850312156110ae57600080fd5b50508035926020909101359150565b600080604083850312156110d057600080fd5b823591506110e060208401611055565b90509250929050565b60008083601f8401126110fb57600080fd5b50813567ffffffffffffffff81111561111357600080fd5b6020830191508360208260051b850101111561112e57600080fd5b9250929050565b60008060008060006060868803121561114d57600080fd5b85359450602086013567ffffffffffffffff8082111561116c57600080fd5b61117889838a016110e9565b9096509450604088013591508082111561119157600080fd5b5061119e888289016110e9565b969995985093965092949392505050565b6000602082840312156111c157600080fd5b6111ca82611055565b9392505050565b634e487b7160e01b600052601160045260246000fd5b8082028115828204841417610f2057610f206111d1565b60006020828403121561121057600080fd5b5051919050565b60006020828403121561122957600080fd5b815180151581146111ca57600080fd5b60008261125657634e487b7160e01b600052601260045260246000fd5b500490565b81810381811115610f2057610f206111d1565b634e487b7160e01b600052603260045260246000fd5b80820180821115610f2057610f206111d1565b6000600182016112a9576112a96111d1565b506001019056fe9b779b17422d0df92223018b32b4d1fa46e071723d6817e2486d003becc55f00a26469706673582212202bc2d6d7447c3a5571f407659fc0aa721d3708a6efbf4a8009eefb73b4fd28bd64736f6c63430008140033","opcodes":"PUSH1 0x80 PUSH1 0x40 MSTORE CALLVALUE DUP1 ISZERO PUSH2 0x10 JUMPI PUSH1 0x0 DUP1 REVERT JUMPDEST POP PUSH1 0x40 MLOAD PUSH2 0x1457 CODESIZE SUB DUP1 PUSH2 0x1457 DUP4 CODECOPY DUP2 ADD PUSH1 0x40 DUP2 SWAP1 MSTORE PUSH2 0x2F SWAP2 PUSH2 0xFF JUMP JUMPDEST CALLER DUP1 PUSH2 0x55 JUMPI PUSH1 0x40 MLOAD PUSH4 0x1E4FBDF7 PUSH1 0xE0 SHL DUP2 MSTORE PUSH1 0x0 PUSH1 0x4 DUP3 ADD MSTORE PUSH1 0x24 ADD PUSH1 0x40 MLOAD DUP1 SWAP2 SUB SWAP1 REVERT JUMPDEST PUSH2 0x5E DUP2 PUSH2 0xAF JUMP JUMPDEST POP PUSH1 0x1 PUSH32 0x9B779B17422D0DF92223018B32B4D1FA46E071723D6817E2486D003BECC55F00 SSTORE PUSH1 0x1 DUP1 SLOAD PUSH1 0x1 PUSH1 0x1 PUSH1 0xA0 SHL SUB NOT AND PUSH1 0x1 PUSH1 0x1 PUSH1 0xA0 SHL SUB SWAP5 SWAP1 SWAP5 AND SWAP4 SWAP1 SWAP4 OR SWAP1 SWAP3 SSTORE PUSH1 0x2 SSTORE PUSH1 0x6 SSTORE PUSH2 0x142 JUMP JUMPDEST PUSH1 0x0 DUP1 SLOAD PUSH1 0x1 PUSH1 0x1 PUSH1 0xA0 SHL SUB DUP4 DUP2 AND PUSH1 0x1 PUSH1 0x1 PUSH1 0xA0 SHL SUB NOT DUP4 AND DUP2 OR DUP5 SSTORE PUSH1 0x40 MLOAD SWAP2 SWAP1 SWAP3 AND SWAP3 DUP4 SWAP2 PUSH32 0x8BE0079C531659141344CD1FD0A4F28419497F9722A3DAAFE3B4186F6B6457E0 SWAP2 SWAP1 LOG3 POP POP JUMP JUMPDEST PUSH1 0x0 DUP1 PUSH1 0x0 PUSH1 0x60 DUP5 DUP7 SUB SLT ISZERO PUSH2 0x114 JUMPI PUSH1 0x0 DUP1 REVERT JUMPDEST DUP4 MLOAD PUSH1 0x1 PUSH1 0x1 PUSH1 0xA0 SHL SUB DUP2 AND DUP2 EQ PUSH2 0x12B JUMPI PUSH1 0x0 DUP1 REVERT JUMPDEST PUSH1 0x20 DUP6 ADD MLOAD PUSH1 0x40 SWAP1 SWAP6 ADD MLOAD SWAP1 SWAP7 SWAP5 SWAP6 POP SWAP4 SWAP3 POP POP POP JUMP JUMPDEST PUSH2 0x1306 DUP1 PUSH2 0x151 PUSH1 0x0 CODECOPY PUSH1 0x0 RETURN INVALID PUSH1 0x80 PUSH1 0x40 MSTORE CALLVALUE DUP1 ISZERO PUSH2 0x10 JUMPI PUSH1 0x0 DUP1 REVERT JUMPDEST POP PUSH1 0x4 CALLDATASIZE LT PUSH2 0x121 JUMPI PUSH1 0x0 CALLDATALOAD PUSH1 0xE0 SHR DUP1 PUSH4 0x77482846 GT PUSH2 0xAD JUMPI DUP1 PUSH4 0xC22C9B4A GT PUSH2 0x71 JUMPI DUP1 PUSH4 0xC22C9B4A EQ PUSH2 0x305 JUMPI DUP1 PUSH4 0xEB770D0C EQ PUSH2 0x318 JUMPI DUP1 PUSH4 0xF2FDE38B EQ PUSH2 0x32B JUMPI DUP1 PUSH4 0xFA5618A6 EQ PUSH2 0x33E JUMPI DUP1 PUSH4 0xFFE27F9D EQ PUSH2 0x351 JUMPI PUSH1 0x0 DUP1 REVERT JUMPDEST DUP1 PUSH4 0x77482846 EQ PUSH2 0x233 JUMPI DUP1 PUSH4 0x89799D8D EQ PUSH2 0x24A JUMPI DUP1 PUSH4 0x8C639A85 EQ PUSH2 0x288 JUMPI DUP1 PUSH4 0x8DA5CB5B EQ PUSH2 0x291 JUMPI DUP1 PUSH4 0xBD0E32A5 EQ PUSH2 0x2A2 JUMPI PUSH1 0x0 DUP1 REVERT JUMPDEST DUP1 PUSH4 0x423E8434 GT PUSH2 0xF4 JUMPI DUP1 PUSH4 0x423E8434 EQ PUSH2 0x1A2 JUMPI DUP1 PUSH4 0x5154A115 EQ PUSH2 0x1F2 JUMPI DUP1 PUSH4 0x6AA21416 EQ PUSH2 0x205 JUMPI DUP1 PUSH4 0x70D2B179 EQ PUSH2 0x218 JUMPI DUP1 PUSH4 0x715018A6 EQ PUSH2 0x22B JUMPI PUSH1 0x0 DUP1 REVERT JUMPDEST DUP1 PUSH4 0xB0235BE EQ PUSH2 0x126 JUMPI DUP1 PUSH4 0x12E8E2C3 EQ PUSH2 0x14F JUMPI DUP1 PUSH4 0x1EC8BB8C EQ PUSH2 0x164 JUMPI DUP1 PUSH4 0x3B1CE35E EQ PUSH2 0x177 JUMPI JUMPDEST PUSH1 0x0 DUP1 REVERT JUMPDEST PUSH2 0x139 PUSH2 0x134 CALLDATASIZE PUSH1 0x4 PUSH2 0xFEF JUMP JUMPDEST PUSH2 0x364 JUMP JUMPDEST PUSH1 0x40 MLOAD PUSH2 0x146 SWAP2 SWAP1 PUSH2 0x1008 JUMP JUMPDEST PUSH1 0x40 MLOAD DUP1 SWAP2 SUB SWAP1 RETURN JUMPDEST PUSH2 0x162 PUSH2 0x15D CALLDATASIZE PUSH1 0x4 PUSH2 0xFEF JUMP JUMPDEST PUSH2 0x3D0 JUMP JUMPDEST STOP JUMPDEST PUSH2 0x162 PUSH2 0x172 CALLDATASIZE PUSH1 0x4 PUSH2 0x1071 JUMP JUMPDEST PUSH2 0x41D JUMP JUMPDEST PUSH1 0x1 SLOAD PUSH2 0x18A SWAP1 PUSH1 0x1 PUSH1 0x1 PUSH1 0xA0 SHL SUB AND DUP2 JUMP JUMPDEST PUSH1 0x40 MLOAD PUSH1 0x1 PUSH1 0x1 PUSH1 0xA0 SHL SUB SWAP1 SWAP2 AND DUP2 MSTORE PUSH1 0x20 ADD PUSH2 0x146 JUMP JUMPDEST PUSH2 0x1D5 PUSH2 0x1B0 CALLDATASIZE PUSH1 0x4 PUSH2 0xFEF JUMP JUMPDEST PUSH1 0x0 SWAP1 DUP2 MSTORE PUSH1 0x3 PUSH1 0x20 MSTORE PUSH1 0x40 SWAP1 KECCAK256 DUP1 SLOAD PUSH1 0x1 DUP3 ADD SLOAD PUSH1 0x2 SWAP1 SWAP3 ADD SLOAD SWAP1 SWAP3 PUSH1 0xFF SWAP1 SWAP2 AND SWAP1 JUMP JUMPDEST PUSH1 0x40 DUP1 MLOAD SWAP4 DUP5 MSTORE PUSH1 0x20 DUP5 ADD SWAP3 SWAP1 SWAP3 MSTORE ISZERO ISZERO SWAP1 DUP3 ADD MSTORE PUSH1 0x60 ADD PUSH2 0x146 JUMP JUMPDEST PUSH2 0x162 PUSH2 0x200 CALLDATASIZE PUSH1 0x4 PUSH2 0xFEF JUMP JUMPDEST PUSH2 0x5AA JUMP JUMPDEST PUSH2 0x162 PUSH2 0x213 CALLDATASIZE PUSH1 0x4 PUSH2 0xFEF JUMP JUMPDEST PUSH2 0x6A2 JUMP JUMPDEST PUSH2 0x18A PUSH2 0x226 CALLDATASIZE PUSH1 0x4 PUSH2 0x109B JUMP JUMPDEST PUSH2 0x752 JUMP JUMPDEST PUSH2 0x162 PUSH2 0x78A JUMP JUMPDEST PUSH2 0x23C PUSH1 0x2 SLOAD DUP2 JUMP JUMPDEST PUSH1 0x40 MLOAD SWAP1 DUP2 MSTORE PUSH1 0x20 ADD PUSH2 0x146 JUMP JUMPDEST PUSH2 0x278 PUSH2 0x258 CALLDATASIZE PUSH1 0x4 PUSH2 0x10BD JUMP JUMPDEST PUSH1 0x4 PUSH1 0x20 SWAP1 DUP2 MSTORE PUSH1 0x0 SWAP3 DUP4 MSTORE PUSH1 0x40 DUP1 DUP5 KECCAK256 SWAP1 SWAP2 MSTORE SWAP1 DUP3 MSTORE SWAP1 KECCAK256 SLOAD PUSH1 0xFF AND DUP2 JUMP JUMPDEST PUSH1 0x40 MLOAD SWAP1 ISZERO ISZERO DUP2 MSTORE PUSH1 0x20 ADD PUSH2 0x146 JUMP JUMPDEST PUSH2 0x23C PUSH1 0x6 SLOAD DUP2 JUMP JUMPDEST PUSH1 0x0 SLOAD PUSH1 0x1 PUSH1 0x1 PUSH1 0xA0 SHL SUB AND PUSH2 0x18A JUMP JUMPDEST PUSH2 0x2DD PUSH2 0x2B0 CALLDATASIZE PUSH1 0x4 PUSH2 0xFEF JUMP JUMPDEST PUSH1 0x3 PUSH1 0x20 MSTORE PUSH1 0x0 SWAP1 DUP2 MSTORE PUSH1 0x40 SWAP1 KECCAK256 DUP1 SLOAD PUSH1 0x1 DUP3 ADD SLOAD PUSH1 0x2 SWAP1 SWAP3 ADD SLOAD SWAP1 SWAP2 SWAP1 PUSH1 0xFF DUP1 DUP3 AND SWAP2 PUSH2 0x100 SWAP1 DIV AND DUP5 JUMP JUMPDEST PUSH1 0x40 DUP1 MLOAD SWAP5 DUP6 MSTORE PUSH1 0x20 DUP6 ADD SWAP4 SWAP1 SWAP4 MSTORE SWAP1 ISZERO ISZERO SWAP2 DUP4 ADD SWAP2 SWAP1 SWAP2 MSTORE ISZERO ISZERO PUSH1 0x60 DUP3 ADD MSTORE PUSH1 0x80 ADD PUSH2 0x146 JUMP JUMPDEST PUSH2 0x162 PUSH2 0x313 CALLDATASIZE PUSH1 0x4 PUSH2 0x1135 JUMP JUMPDEST PUSH2 0x79E JUMP JUMPDEST PUSH2 0x162 PUSH2 0x326 CALLDATASIZE PUSH1 0x4 PUSH2 0xFEF JUMP JUMPDEST PUSH2 0xB5C JUMP JUMPDEST PUSH2 0x162 PUSH2 0x339 CALLDATASIZE PUSH1 0x4 PUSH2 0x11AF JUMP JUMPDEST PUSH2 0xB69 JUMP JUMPDEST PUSH2 0x162 PUSH2 0x34C CALLDATASIZE PUSH1 0x4 PUSH2 0xFEF JUMP JUMPDEST PUSH2 0xBA7 JUMP JUMPDEST PUSH2 0x278 PUSH2 0x35F CALLDATASIZE PUSH1 0x4 PUSH2 0x10BD JUMP JUMPDEST PUSH2 0xEF9 JUMP JUMPDEST PUSH1 0x0 DUP2 DUP2 MSTORE PUSH1 0x5 PUSH1 0x20 SWAP1 DUP2 MSTORE PUSH1 0x40 SWAP2 DUP3 SWAP1 KECCAK256 DUP1 SLOAD DUP4 MLOAD DUP2 DUP5 MUL DUP2 ADD DUP5 ADD SWAP1 SWAP5 MSTORE DUP1 DUP5 MSTORE PUSH1 0x60 SWAP4 SWAP3 DUP4 ADD DUP3 DUP3 DUP1 ISZERO PUSH2 0x3C4 JUMPI PUSH1 0x20 MUL DUP3 ADD SWAP2 SWAP1 PUSH1 0x0 MSTORE PUSH1 0x20 PUSH1 0x0 KECCAK256 SWAP1 JUMPDEST DUP2 SLOAD PUSH1 0x1 PUSH1 0x1 PUSH1 0xA0 SHL SUB AND DUP2 MSTORE PUSH1 0x1 SWAP1 SWAP2 ADD SWAP1 PUSH1 0x20 ADD DUP1 DUP4 GT PUSH2 0x3A6 JUMPI JUMPDEST POP POP POP POP POP SWAP1 POP SWAP2 SWAP1 POP JUMP JUMPDEST PUSH2 0x3D8 PUSH2 0xF26 JUMP JUMPDEST PUSH1 0x1E DUP2 GT ISZERO PUSH2 0x418 JUMPI PUSH1 0x40 MLOAD PUSH3 0x461BCD PUSH1 0xE5 SHL DUP2 MSTORE PUSH1 0x20 PUSH1 0x4 DUP3 ADD MSTORE PUSH1 0x7 PUSH1 0x24 DUP3 ADD MSTORE PUSH7 0x4D617820333025 PUSH1 0xC8 SHL PUSH1 0x44 DUP3 ADD MSTORE PUSH1 0x64 ADD JUMPDEST PUSH1 0x40 MLOAD DUP1 SWAP2 SUB SWAP1 REVERT JUMPDEST PUSH1 0x6 SSTORE JUMP JUMPDEST PUSH2 0x425 PUSH2 0xF26 JUMP JUMPDEST PUSH1 0x0 PUSH2 0x439 DUP3 PUSH8 0xDE0B6B3A7640000 PUSH2 0x11E7 JUMP JUMPDEST PUSH1 0x1 SLOAD PUSH1 0x40 MLOAD PUSH4 0x70A08231 PUSH1 0xE0 SHL DUP2 MSTORE ADDRESS PUSH1 0x4 DUP3 ADD MSTORE SWAP2 SWAP3 POP DUP3 SWAP2 PUSH1 0x1 PUSH1 0x1 PUSH1 0xA0 SHL SUB SWAP1 SWAP2 AND SWAP1 PUSH4 0x70A08231 SWAP1 PUSH1 0x24 ADD PUSH1 0x20 PUSH1 0x40 MLOAD DUP1 DUP4 SUB DUP2 DUP7 GAS STATICCALL ISZERO DUP1 ISZERO PUSH2 0x486 JUMPI RETURNDATASIZE PUSH1 0x0 DUP1 RETURNDATACOPY RETURNDATASIZE PUSH1 0x0 REVERT JUMPDEST POP POP POP POP PUSH1 0x40 MLOAD RETURNDATASIZE PUSH1 0x1F NOT PUSH1 0x1F DUP3 ADD AND DUP3 ADD DUP1 PUSH1 0x40 MSTORE POP DUP2 ADD SWAP1 PUSH2 0x4AA SWAP2 SWAP1 PUSH2 0x11FE JUMP JUMPDEST LT ISZERO PUSH2 0x4EC JUMPI PUSH1 0x40 MLOAD PUSH3 0x461BCD PUSH1 0xE5 SHL DUP2 MSTORE PUSH1 0x20 PUSH1 0x4 DUP3 ADD MSTORE PUSH1 0x11 PUSH1 0x24 DUP3 ADD MSTORE PUSH17 0x125B9CDD59999A58DA595B9D081C1BDBDB PUSH1 0x7A SHL PUSH1 0x44 DUP3 ADD MSTORE PUSH1 0x64 ADD PUSH2 0x40F JUMP JUMPDEST PUSH1 0x1 SLOAD PUSH1 0x40 MLOAD PUSH4 0xA9059CBB PUSH1 0xE0 SHL DUP2 MSTORE PUSH1 0x1 PUSH1 0x1 PUSH1 0xA0 SHL SUB DUP6 DUP2 AND PUSH1 0x4 DUP4 ADD MSTORE PUSH1 0x24 DUP3 ADD DUP5 SWAP1 MSTORE SWAP1 SWAP2 AND SWAP1 PUSH4 0xA9059CBB SWAP1 PUSH1 0x44 ADD PUSH1 0x20 PUSH1 0x40 MLOAD DUP1 DUP4 SUB DUP2 PUSH1 0x0 DUP8 GAS CALL ISZERO DUP1 ISZERO PUSH2 0x53F JUMPI RETURNDATASIZE PUSH1 0x0 DUP1 RETURNDATACOPY RETURNDATASIZE PUSH1 0x0 REVERT JUMPDEST POP POP POP POP PUSH1 0x40 MLOAD RETURNDATASIZE PUSH1 0x1F NOT PUSH1 0x1F DUP3 ADD AND DUP3 ADD DUP1 PUSH1 0x40 MSTORE POP DUP2 ADD SWAP1 PUSH2 0x563 SWAP2 SWAP1 PUSH2 0x1217 JUMP JUMPDEST POP PUSH1 0x40 MLOAD DUP3 DUP2 MSTORE PUSH1 0x1 PUSH1 0x1 PUSH1 0xA0 SHL SUB DUP5 AND SWAP1 PUSH1 0x0 SWAP1 PUSH32 0x8FA6ABE1348F6561B9A60363EFC5793E820B343DCE49D00E37D01644D9268A77 SWAP1 PUSH1 0x20 ADD PUSH1 0x40 MLOAD DUP1 SWAP2 SUB SWAP1 LOG3 POP POP POP JUMP JUMPDEST PUSH2 0x5B2 PUSH2 0xF26 JUMP JUMPDEST PUSH1 0x0 DUP2 DUP2 MSTORE PUSH1 0x3 PUSH1 0x20 MSTORE PUSH1 0x40 SWAP1 KECCAK256 PUSH1 0x2 ADD SLOAD PUSH2 0x100 SWAP1 DIV PUSH1 0xFF AND ISZERO PUSH2 0x60F JUMPI PUSH1 0x40 MLOAD PUSH3 0x461BCD PUSH1 0xE5 SHL DUP2 MSTORE PUSH1 0x20 PUSH1 0x4 DUP3 ADD MSTORE PUSH1 0x13 PUSH1 0x24 DUP3 ADD MSTORE PUSH19 0x5261636520616C726561647920657869737473 PUSH1 0x68 SHL PUSH1 0x44 DUP3 ADD MSTORE PUSH1 0x64 ADD PUSH2 0x40F JUMP JUMPDEST PUSH1 0x40 DUP1 MLOAD PUSH1 0x80 DUP2 ADD DUP3 MSTORE PUSH1 0x0 DUP1 DUP3 MSTORE PUSH1 0x20 DUP1 DUP4 ADD DUP3 DUP2 MSTORE DUP4 DUP6 ADD DUP4 DUP2 MSTORE PUSH1 0x1 PUSH1 0x60 DUP7 ADD DUP2 DUP2 MSTORE DUP9 DUP7 MSTORE PUSH1 0x3 SWAP1 SWAP5 MSTORE DUP7 DUP6 KECCAK256 SWAP6 MLOAD DUP7 SSTORE SWAP2 MLOAD SWAP2 DUP6 ADD SWAP2 SWAP1 SWAP2 SSTORE MLOAD PUSH1 0x2 SWAP1 SWAP4 ADD DUP1 SLOAD SWAP2 MLOAD PUSH2 0xFFFF NOT SWAP1 SWAP3 AND SWAP4 ISZERO ISZERO PUSH2 0xFF00 NOT AND SWAP4 SWAP1 SWAP4 OR PUSH2 0x100 SWAP2 ISZERO ISZERO SWAP2 SWAP1 SWAP2 MUL OR SWAP1 SWAP2 SSTORE SWAP1 MLOAD DUP3 SWAP2 PUSH32 0x2C36C88C1D7D82016E26AC35813D7D2CFFDED6C6CBA1C4D153DC55D9E3973A7F SWAP2 LOG2 POP JUMP JUMPDEST PUSH2 0x6AA PUSH2 0xF26 JUMP JUMPDEST PUSH1 0x1 SLOAD PUSH1 0x1 PUSH1 0x1 PUSH1 0xA0 SHL SUB AND PUSH4 0xA9059CBB PUSH2 0x6CD PUSH1 0x0 SLOAD PUSH1 0x1 PUSH1 0x1 PUSH1 0xA0 SHL SUB AND SWAP1 JUMP JUMPDEST PUSH2 0x6DF DUP5 PUSH8 0xDE0B6B3A7640000 PUSH2 0x11E7 JUMP JUMPDEST PUSH1 0x40 MLOAD PUSH1 0x1 PUSH1 0x1 PUSH1 0xE0 SHL SUB NOT PUSH1 0xE0 DUP6 SWAP1 SHL AND DUP2 MSTORE PUSH1 0x1 PUSH1 0x1 PUSH1 0xA0 SHL SUB SWAP1 SWAP3 AND PUSH1 0x4 DUP4 ADD MSTORE PUSH1 0x24 DUP3 ADD MSTORE PUSH1 0x44 ADD PUSH1 0x20 PUSH1 0x40 MLOAD DUP1 DUP4 SUB DUP2 PUSH1 0x0 DUP8 GAS CALL ISZERO DUP1 ISZERO PUSH2 0x72A JUMPI RETURNDATASIZE PUSH1 0x0 DUP1 RETURNDATACOPY RETURNDATASIZE PUSH1 0x0 REVERT JUMPDEST POP POP POP POP PUSH1 0x40 MLOAD RETURNDATASIZE PUSH1 0x1F NOT PUSH1 0x1F DUP3 ADD AND DUP3 ADD DUP1 PUSH1 0x40 MSTORE POP DUP2 ADD SWAP1 PUSH2 0x74E SWAP2 SWAP1 PUSH2 0x1217 JUMP JUMPDEST POP POP JUMP JUMPDEST PUSH1 0x5 PUSH1 0x20 MSTORE DUP2 PUSH1 0x0 MSTORE PUSH1 0x40 PUSH1 0x0 KECCAK256 DUP2 DUP2 SLOAD DUP2 LT PUSH2 0x76E JUMPI PUSH1 0x0 DUP1 REVERT JUMPDEST PUSH1 0x0 SWAP2 DUP3 MSTORE PUSH1 0x20 SWAP1 SWAP2 KECCAK256 ADD SLOAD PUSH1 0x1 PUSH1 0x1 PUSH1 0xA0 SHL SUB AND SWAP2 POP DUP3 SWAP1 POP JUMP JUMPDEST PUSH2 0x792 PUSH2 0xF26 JUMP JUMPDEST PUSH2 0x79C PUSH1 0x0 PUSH2 0xF53 JUMP JUMPDEST JUMP JUMPDEST PUSH2 0x7A6 PUSH2 0xF26 JUMP JUMPDEST PUSH2 0x7AE PUSH2 0xFA3 JUMP JUMPDEST PUSH1 0x0 DUP6 DUP2 MSTORE PUSH1 0x3 PUSH1 0x20 MSTORE PUSH1 0x40 SWAP1 KECCAK256 PUSH1 0x2 ADD SLOAD PUSH2 0x100 SWAP1 DIV PUSH1 0xFF AND PUSH2 0x80A JUMPI PUSH1 0x40 MLOAD PUSH3 0x461BCD PUSH1 0xE5 SHL DUP2 MSTORE PUSH1 0x20 PUSH1 0x4 DUP3 ADD MSTORE PUSH1 0x13 PUSH1 0x24 DUP3 ADD MSTORE PUSH19 0x149858D948191BD95CC81B9BDD08195E1A5CDD PUSH1 0x6A SHL PUSH1 0x44 DUP3 ADD MSTORE PUSH1 0x64 ADD PUSH2 0x40F JUMP JUMPDEST PUSH1 0x0 DUP6 DUP2 MSTORE PUSH1 0x3 PUSH1 0x20 MSTORE PUSH1 0x40 SWAP1 KECCAK256 PUSH1 0x2 ADD SLOAD PUSH1 0xFF AND ISZERO PUSH2 0x85E JUMPI PUSH1 0x40 MLOAD PUSH3 0x461BCD PUSH1 0xE5 SHL DUP2 MSTORE PUSH1 0x20 PUSH1 0x4 DUP3 ADD MSTORE PUSH1 0xF PUSH1 0x24 DUP3 ADD MSTORE PUSH15 0x105B1C9958591E481CD95D1D1B1959 PUSH1 0x8A SHL PUSH1 0x44 DUP3 ADD MSTORE PUSH1 0x64 ADD PUSH2 0x40F JUMP JUMPDEST DUP3 DUP2 EQ PUSH2 0x89F JUMPI PUSH1 0x40 MLOAD PUSH3 0x461BCD PUSH1 0xE5 SHL DUP2 MSTORE PUSH1 0x20 PUSH1 0x4 DUP3 ADD MSTORE PUSH1 0xF PUSH1 0x24 DUP3 ADD MSTORE PUSH15 0x98CADCCEE8D040DAD2E6DAC2E8C6D PUSH1 0x8B SHL PUSH1 0x44 DUP3 ADD MSTORE PUSH1 0x64 ADD PUSH2 0x40F JUMP JUMPDEST PUSH1 0x0 DUP6 DUP2 MSTORE PUSH1 0x3 PUSH1 0x20 MSTORE PUSH1 0x40 DUP2 KECCAK256 DUP1 SLOAD PUSH1 0x6 SLOAD SWAP2 SWAP3 SWAP1 SWAP2 PUSH1 0x64 SWAP1 PUSH2 0x8C3 SWAP1 DUP5 PUSH2 0x11E7 JUMP JUMPDEST PUSH2 0x8CD SWAP2 SWAP1 PUSH2 0x1239 JUMP JUMPDEST SWAP1 POP PUSH1 0x0 PUSH2 0x8DB DUP3 DUP5 PUSH2 0x125B JUMP JUMPDEST SWAP1 POP PUSH1 0x0 DUP1 JUMPDEST DUP7 DUP2 LT ISZERO PUSH2 0x921 JUMPI DUP8 DUP8 DUP3 DUP2 DUP2 LT PUSH2 0x8FB JUMPI PUSH2 0x8FB PUSH2 0x126E JUMP JUMPDEST SWAP1 POP PUSH1 0x20 MUL ADD CALLDATALOAD DUP3 PUSH2 0x90D SWAP2 SWAP1 PUSH2 0x1284 JUMP JUMPDEST SWAP2 POP DUP1 PUSH2 0x919 DUP2 PUSH2 0x1297 JUMP JUMPDEST SWAP2 POP POP PUSH2 0x8E1 JUMP JUMPDEST POP PUSH1 0x64 DUP2 GT ISZERO PUSH2 0x968 JUMPI PUSH1 0x40 MLOAD PUSH3 0x461BCD PUSH1 0xE5 SHL DUP2 MSTORE PUSH1 0x20 PUSH1 0x4 DUP3 ADD MSTORE PUSH1 0x12 PUSH1 0x24 DUP3 ADD MSTORE PUSH18 0x536861726573206578636565642031303025 PUSH1 0x70 SHL PUSH1 0x44 DUP3 ADD MSTORE PUSH1 0x64 ADD PUSH2 0x40F JUMP JUMPDEST PUSH1 0x0 JUMPDEST DUP9 DUP2 LT ISZERO PUSH2 0xAED JUMPI PUSH1 0x0 PUSH1 0x64 DUP10 DUP10 DUP5 DUP2 DUP2 LT PUSH2 0x989 JUMPI PUSH2 0x989 PUSH2 0x126E JUMP JUMPDEST SWAP1 POP PUSH1 0x20 MUL ADD CALLDATALOAD DUP6 PUSH2 0x99B SWAP2 SWAP1 PUSH2 0x11E7 JUMP JUMPDEST PUSH2 0x9A5 SWAP2 SWAP1 PUSH2 0x1239 JUMP JUMPDEST SWAP1 POP DUP1 ISZERO PUSH2 0xADA JUMPI PUSH1 0x0 PUSH2 0x9C1 DUP3 PUSH8 0xDE0B6B3A7640000 PUSH2 0x11E7 JUMP JUMPDEST PUSH1 0x1 SLOAD SWAP1 SWAP2 POP PUSH1 0x1 PUSH1 0x1 PUSH1 0xA0 SHL SUB AND PUSH4 0xA9059CBB DUP14 DUP14 DUP7 DUP2 DUP2 LT PUSH2 0x9E7 JUMPI PUSH2 0x9E7 PUSH2 0x126E JUMP JUMPDEST SWAP1 POP PUSH1 0x20 MUL ADD PUSH1 0x20 DUP2 ADD SWAP1 PUSH2 0x9FC SWAP2 SWAP1 PUSH2 0x11AF JUMP JUMPDEST PUSH1 0x40 MLOAD PUSH1 0x1 PUSH1 0x1 PUSH1 0xE0 SHL SUB NOT PUSH1 0xE0 DUP5 SWAP1 SHL AND DUP2 MSTORE PUSH1 0x1 PUSH1 0x1 PUSH1 0xA0 SHL SUB SWAP1 SWAP2 AND PUSH1 0x4 DUP3 ADD MSTORE PUSH1 0x24 DUP2 ADD DUP5 SWAP1 MSTORE PUSH1 0x44 ADD PUSH1 0x20 PUSH1 0x40 MLOAD DUP1 DUP4 SUB DUP2 PUSH1 0x0 DUP8 GAS CALL ISZERO DUP1 ISZERO PUSH2 0xA49 JUMPI RETURNDATASIZE PUSH1 0x0 DUP1 RETURNDATACOPY RETURNDATASIZE PUSH1 0x0 REVERT JUMPDEST POP POP POP POP PUSH1 0x40 MLOAD RETURNDATASIZE PUSH1 0x1F NOT PUSH1 0x1F DUP3 ADD AND DUP3 ADD DUP1 PUSH1 0x40 MSTORE POP DUP2 ADD SWAP1 PUSH2 0xA6D SWAP2 SWAP1 PUSH2 0x1217 JUMP JUMPDEST POP DUP12 DUP12 DUP5 DUP2 DUP2 LT PUSH2 0xA80 JUMPI PUSH2 0xA80 PUSH2 0x126E JUMP JUMPDEST SWAP1 POP PUSH1 0x20 MUL ADD PUSH1 0x20 DUP2 ADD SWAP1 PUSH2 0xA95 SWAP2 SWAP1 PUSH2 0x11AF JUMP JUMPDEST PUSH1 0x1 PUSH1 0x1 PUSH1 0xA0 SHL SUB AND DUP14 PUSH32 0x8FA6ABE1348F6561B9A60363EFC5793E820B343DCE49D00E37D01644D9268A77 DUP5 PUSH1 0x40 MLOAD PUSH2 0xAD0 SWAP2 DUP2 MSTORE PUSH1 0x20 ADD SWAP1 JUMP JUMPDEST PUSH1 0x40 MLOAD DUP1 SWAP2 SUB SWAP1 LOG3 POP JUMPDEST POP DUP1 PUSH2 0xAE5 DUP2 PUSH2 0x1297 JUMP JUMPDEST SWAP2 POP POP PUSH2 0x96B JUMP JUMPDEST POP PUSH1 0x2 DUP6 ADD DUP1 SLOAD PUSH1 0xFF NOT AND PUSH1 0x1 OR SWAP1 SSTORE PUSH1 0x40 MLOAD DUP11 SWAP1 PUSH32 0x615C60CB3393165876238CFA7F5C47DF0EB15F9EB5329AD532BCDF58CF10D28D SWAP1 PUSH2 0xB31 SWAP1 DUP8 DUP2 MSTORE PUSH1 0x20 ADD SWAP1 JUMP JUMPDEST PUSH1 0x40 MLOAD DUP1 SWAP2 SUB SWAP1 LOG2 POP POP POP POP POP PUSH2 0xB55 PUSH1 0x1 PUSH1 0x0 DUP1 MLOAD PUSH1 0x20 PUSH2 0x12B1 DUP4 CODECOPY DUP2 MLOAD SWAP2 MSTORE SSTORE JUMP JUMPDEST POP POP POP POP POP JUMP JUMPDEST PUSH2 0xB64 PUSH2 0xF26 JUMP JUMPDEST PUSH1 0x2 SSTORE JUMP JUMPDEST PUSH2 0xB71 PUSH2 0xF26 JUMP JUMPDEST PUSH1 0x1 PUSH1 0x1 PUSH1 0xA0 SHL SUB DUP2 AND PUSH2 0xB9B JUMPI PUSH1 0x40 MLOAD PUSH4 0x1E4FBDF7 PUSH1 0xE0 SHL DUP2 MSTORE PUSH1 0x0 PUSH1 0x4 DUP3 ADD MSTORE PUSH1 0x24 ADD PUSH2 0x40F JUMP JUMPDEST PUSH2 0xBA4 DUP2 PUSH2 0xF53 JUMP JUMPDEST POP JUMP JUMPDEST PUSH2 0xBAF PUSH2 0xFA3 JUMP JUMPDEST PUSH1 0x0 DUP2 DUP2 MSTORE PUSH1 0x3 PUSH1 0x20 MSTORE PUSH1 0x40 SWAP1 KECCAK256 PUSH1 0x2 ADD SLOAD PUSH2 0x100 SWAP1 DIV PUSH1 0xFF AND PUSH2 0xC0B JUMPI PUSH1 0x40 MLOAD PUSH3 0x461BCD PUSH1 0xE5 SHL DUP2 MSTORE PUSH1 0x20 PUSH1 0x4 DUP3 ADD MSTORE PUSH1 0x13 PUSH1 0x24 DUP3 ADD MSTORE PUSH19 0x149858D948191BD95CC81B9BDD08195E1A5CDD PUSH1 0x6A SHL PUSH1 0x44 DUP3 ADD MSTORE PUSH1 0x64 ADD PUSH2 0x40F JUMP JUMPDEST PUSH1 0x0 DUP2 DUP2 MSTORE PUSH1 0x3 PUSH1 0x20 MSTORE PUSH1 0x40 SWAP1 KECCAK256 PUSH1 0x2 ADD SLOAD PUSH1 0xFF AND ISZERO PUSH2 0xC64 JUMPI PUSH1 0x40 MLOAD PUSH3 0x461BCD PUSH1 0xE5 SHL DUP2 MSTORE PUSH1 0x20 PUSH1 0x4 DUP3 ADD MSTORE PUSH1 0x14 PUSH1 0x24 DUP3 ADD MSTORE PUSH20 0x149858D948185B1C9958591E481CD95D1D1B1959 PUSH1 0x62 SHL PUSH1 0x44 DUP3 ADD MSTORE PUSH1 0x64 ADD PUSH2 0x40F JUMP JUMPDEST PUSH1 0x0 DUP2 DUP2 MSTORE PUSH1 0x4 PUSH1 0x20 SWAP1 DUP2 MSTORE PUSH1 0x40 DUP1 DUP4 KECCAK256 CALLER DUP5 MSTORE SWAP1 SWAP2 MSTORE SWAP1 KECCAK256 SLOAD PUSH1 0xFF AND ISZERO PUSH2 0xCC0 JUMPI PUSH1 0x40 MLOAD PUSH3 0x461BCD PUSH1 0xE5 SHL DUP2 MSTORE PUSH1 0x20 PUSH1 0x4 DUP3 ADD MSTORE PUSH1 0xF PUSH1 0x24 DUP3 ADD MSTORE PUSH15 0x105B1C9958591E48195B9D195C9959 PUSH1 0x8A SHL PUSH1 0x44 DUP3 ADD MSTORE PUSH1 0x64 ADD PUSH2 0x40F JUMP JUMPDEST PUSH1 0x0 PUSH1 0x2 SLOAD PUSH8 0xDE0B6B3A7640000 PUSH2 0xCD8 SWAP2 SWAP1 PUSH2 0x11E7 JUMP JUMPDEST PUSH1 0x1 SLOAD PUSH1 0x40 MLOAD PUSH4 0x70A08231 PUSH1 0xE0 SHL DUP2 MSTORE CALLER PUSH1 0x4 DUP3 ADD MSTORE SWAP2 SWAP3 POP DUP3 SWAP2 PUSH1 0x1 PUSH1 0x1 PUSH1 0xA0 SHL SUB SWAP1 SWAP2 AND SWAP1 PUSH4 0x70A08231 SWAP1 PUSH1 0x24 ADD PUSH1 0x20 PUSH1 0x40 MLOAD DUP1 DUP4 SUB DUP2 DUP7 GAS STATICCALL ISZERO DUP1 ISZERO PUSH2 0xD25 JUMPI RETURNDATASIZE PUSH1 0x0 DUP1 RETURNDATACOPY RETURNDATASIZE PUSH1 0x0 REVERT JUMPDEST POP POP POP POP PUSH1 0x40 MLOAD RETURNDATASIZE PUSH1 0x1F NOT PUSH1 0x1F DUP3 ADD AND DUP3 ADD DUP1 PUSH1 0x40 MSTORE POP DUP2 ADD SWAP1 PUSH2 0xD49 SWAP2 SWAP1 PUSH2 0x11FE JUMP JUMPDEST LT ISZERO PUSH2 0xD90 JUMPI PUSH1 0x40 MLOAD PUSH3 0x461BCD PUSH1 0xE5 SHL DUP2 MSTORE PUSH1 0x20 PUSH1 0x4 DUP3 ADD MSTORE PUSH1 0x16 PUSH1 0x24 DUP3 ADD MSTORE PUSH22 0x496E73756666696369656E742047616D65436F696E73 PUSH1 0x50 SHL PUSH1 0x44 DUP3 ADD MSTORE PUSH1 0x64 ADD PUSH2 0x40F JUMP JUMPDEST PUSH1 0x1 SLOAD PUSH1 0x40 MLOAD PUSH4 0x23B872DD PUSH1 0xE0 SHL DUP2 MSTORE CALLER PUSH1 0x4 DUP3 ADD MSTORE ADDRESS PUSH1 0x24 DUP3 ADD MSTORE PUSH1 0x44 DUP2 ADD DUP4 SWAP1 MSTORE PUSH1 0x1 PUSH1 0x1 PUSH1 0xA0 SHL SUB SWAP1 SWAP2 AND SWAP1 PUSH4 0x23B872DD SWAP1 PUSH1 0x64 ADD PUSH1 0x20 PUSH1 0x40 MLOAD DUP1 DUP4 SUB DUP2 PUSH1 0x0 DUP8 GAS CALL ISZERO DUP1 ISZERO PUSH2 0xDE7 JUMPI RETURNDATASIZE PUSH1 0x0 DUP1 RETURNDATACOPY RETURNDATASIZE PUSH1 0x0 REVERT JUMPDEST POP POP POP POP PUSH1 0x40 MLOAD RETURNDATASIZE PUSH1 0x1F NOT PUSH1 0x1F DUP3 ADD AND DUP3 ADD DUP1 PUSH1 0x40 MSTORE POP DUP2 ADD SWAP1 PUSH2 0xE0B SWAP2 SWAP1 PUSH2 0x1217 JUMP JUMPDEST POP PUSH1 0x0 DUP3 DUP2 MSTORE PUSH1 0x4 PUSH1 0x20 SWAP1 DUP2 MSTORE PUSH1 0x40 DUP1 DUP4 KECCAK256 CALLER DUP5 MSTORE DUP3 MSTORE DUP1 DUP4 KECCAK256 DUP1 SLOAD PUSH1 0xFF NOT AND PUSH1 0x1 OR SWAP1 SSTORE PUSH1 0x2 SLOAD DUP6 DUP5 MSTORE PUSH1 0x3 SWAP1 SWAP3 MSTORE DUP3 KECCAK256 DUP1 SLOAD SWAP2 SWAP3 SWAP1 SWAP2 PUSH2 0xE4E SWAP1 DUP5 SWAP1 PUSH2 0x1284 JUMP JUMPDEST SWAP1 SWAP2 SSTORE POP POP PUSH1 0x0 DUP3 DUP2 MSTORE PUSH1 0x3 PUSH1 0x20 MSTORE PUSH1 0x40 DUP2 KECCAK256 PUSH1 0x1 ADD DUP1 SLOAD SWAP2 PUSH2 0xE70 DUP4 PUSH2 0x1297 JUMP JUMPDEST SWAP1 SWAP2 SSTORE POP POP PUSH1 0x0 DUP3 DUP2 MSTORE PUSH1 0x5 PUSH1 0x20 SWAP1 DUP2 MSTORE PUSH1 0x40 DUP1 DUP4 KECCAK256 DUP1 SLOAD PUSH1 0x1 DUP2 ADD DUP3 SSTORE SWAP1 DUP5 MSTORE SWAP3 DUP3 SWAP1 KECCAK256 SWAP1 SWAP3 ADD DUP1 SLOAD PUSH1 0x1 PUSH1 0x1 PUSH1 0xA0 SHL SUB NOT AND CALLER SWAP1 DUP2 OR SWAP1 SWAP2 SSTORE PUSH1 0x2 SLOAD SWAP3 MLOAD SWAP3 DUP4 MSTORE SWAP2 DUP5 SWAP2 PUSH32 0xB416BA8D4BFEAD9E01547FC614C02DAD7E34BCA27082229532EE251A56C89152 SWAP2 ADD PUSH1 0x40 MLOAD DUP1 SWAP2 SUB SWAP1 LOG3 POP PUSH2 0xBA4 PUSH1 0x1 PUSH1 0x0 DUP1 MLOAD PUSH1 0x20 PUSH2 0x12B1 DUP4 CODECOPY DUP2 MLOAD SWAP2 MSTORE SSTORE JUMP JUMPDEST PUSH1 0x0 DUP3 DUP2 MSTORE PUSH1 0x4 PUSH1 0x20 SWAP1 DUP2 MSTORE PUSH1 0x40 DUP1 DUP4 KECCAK256 PUSH1 0x1 PUSH1 0x1 PUSH1 0xA0 SHL SUB DUP6 AND DUP5 MSTORE SWAP1 SWAP2 MSTORE SWAP1 KECCAK256 SLOAD PUSH1 0xFF AND JUMPDEST SWAP3 SWAP2 POP POP JUMP JUMPDEST PUSH1 0x0 SLOAD PUSH1 0x1 PUSH1 0x1 PUSH1 0xA0 SHL SUB AND CALLER EQ PUSH2 0x79C JUMPI PUSH1 0x40 MLOAD PUSH4 0x118CDAA7 PUSH1 0xE0 SHL DUP2 MSTORE CALLER PUSH1 0x4 DUP3 ADD MSTORE PUSH1 0x24 ADD PUSH2 0x40F JUMP JUMPDEST PUSH1 0x0 DUP1 SLOAD PUSH1 0x1 PUSH1 0x1 PUSH1 0xA0 SHL SUB DUP4 DUP2 AND PUSH1 0x1 PUSH1 0x1 PUSH1 0xA0 SHL SUB NOT DUP4 AND DUP2 OR DUP5 SSTORE PUSH1 0x40 MLOAD SWAP2 SWAP1 SWAP3 AND SWAP3 DUP4 SWAP2 PUSH32 0x8BE0079C531659141344CD1FD0A4F28419497F9722A3DAAFE3B4186F6B6457E0 SWAP2 SWAP1 LOG3 POP POP JUMP JUMPDEST PUSH2 0xFAB PUSH2 0xFBF JUMP JUMPDEST PUSH1 0x2 PUSH1 0x0 DUP1 MLOAD PUSH1 0x20 PUSH2 0x12B1 DUP4 CODECOPY DUP2 MLOAD SWAP2 MSTORE SSTORE JUMP JUMPDEST PUSH1 0x0 DUP1 MLOAD PUSH1 0x20 PUSH2 0x12B1 DUP4 CODECOPY DUP2 MLOAD SWAP2 MSTORE SLOAD PUSH1 0x2 SUB PUSH2 0x79C JUMPI PUSH1 0x40 MLOAD PUSH4 0x3EE5AEB5 PUSH1 0xE0 SHL DUP2 MSTORE PUSH1 0x4 ADD PUSH1 0x40 MLOAD DUP1 SWAP2 SUB SWAP1 REVERT JUMPDEST PUSH1 0x0 PUSH1 0x20 DUP3 DUP5 SUB SLT ISZERO PUSH2 0x1001 JUMPI PUSH1 0x0 DUP1 REVERT JUMPDEST POP CALLDATALOAD SWAP2 SWAP1 POP JUMP JUMPDEST PUSH1 0x20 DUP1 DUP3 MSTORE DUP3 MLOAD DUP3 DUP3 ADD DUP2 SWAP1 MSTORE PUSH1 0x0 SWAP2 SWAP1 DUP5 DUP3 ADD SWAP1 PUSH1 0x40 DUP6 ADD SWAP1 DUP5 JUMPDEST DUP2 DUP2 LT ISZERO PUSH2 0x1049 JUMPI DUP4 MLOAD PUSH1 0x1 PUSH1 0x1 PUSH1 0xA0 SHL SUB AND DUP4 MSTORE SWAP3 DUP5 ADD SWAP3 SWAP2 DUP5 ADD SWAP2 PUSH1 0x1 ADD PUSH2 0x1024 JUMP JUMPDEST POP SWAP1 SWAP7 SWAP6 POP POP POP POP POP POP JUMP JUMPDEST DUP1 CALLDATALOAD PUSH1 0x1 PUSH1 0x1 PUSH1 0xA0 SHL SUB DUP2 AND DUP2 EQ PUSH2 0x106C JUMPI PUSH1 0x0 DUP1 REVERT JUMPDEST SWAP2 SWAP1 POP JUMP JUMPDEST PUSH1 0x0 DUP1 PUSH1 0x40 DUP4 DUP6 SUB SLT ISZERO PUSH2 0x1084 JUMPI PUSH1 0x0 DUP1 REVERT JUMPDEST PUSH2 0x108D DUP4 PUSH2 0x1055 JUMP JUMPDEST SWAP5 PUSH1 0x20 SWAP4 SWAP1 SWAP4 ADD CALLDATALOAD SWAP4 POP POP POP JUMP JUMPDEST PUSH1 0x0 DUP1 PUSH1 0x40 DUP4 DUP6 SUB SLT ISZERO PUSH2 0x10AE JUMPI PUSH1 0x0 DUP1 REVERT JUMPDEST POP POP DUP1 CALLDATALOAD SWAP3 PUSH1 0x20 SWAP1 SWAP2 ADD CALLDATALOAD SWAP2 POP JUMP JUMPDEST PUSH1 0x0 DUP1 PUSH1 0x40 DUP4 DUP6 SUB SLT ISZERO PUSH2 0x10D0 JUMPI PUSH1 0x0 DUP1 REVERT JUMPDEST DUP3 CALLDATALOAD SWAP2 POP PUSH2 0x10E0 PUSH1 0x20 DUP5 ADD PUSH2 0x1055 JUMP JUMPDEST SWAP1 POP SWAP3 POP SWAP3 SWAP1 POP JUMP JUMPDEST PUSH1 0x0 DUP1 DUP4 PUSH1 0x1F DUP5 ADD SLT PUSH2 0x10FB JUMPI PUSH1 0x0 DUP1 REVERT JUMPDEST POP DUP2 CALLDATALOAD PUSH8 0xFFFFFFFFFFFFFFFF DUP2 GT ISZERO PUSH2 0x1113 JUMPI PUSH1 0x0 DUP1 REVERT JUMPDEST PUSH1 0x20 DUP4 ADD SWAP2 POP DUP4 PUSH1 0x20 DUP3 PUSH1 0x5 SHL DUP6 ADD ADD GT ISZERO PUSH2 0x112E JUMPI PUSH1 0x0 DUP1 REVERT JUMPDEST SWAP3 POP SWAP3 SWAP1 POP JUMP JUMPDEST PUSH1 0x0 DUP1 PUSH1 0x0 DUP1 PUSH1 0x0 PUSH1 0x60 DUP7 DUP9 SUB SLT ISZERO PUSH2 0x114D JUMPI PUSH1 0x0 DUP1 REVERT JUMPDEST DUP6 CALLDATALOAD SWAP5 POP PUSH1 0x20 DUP7 ADD CALLDATALOAD PUSH8 0xFFFFFFFFFFFFFFFF DUP1 DUP3 GT ISZERO PUSH2 0x116C JUMPI PUSH1 0x0 DUP1 REVERT JUMPDEST PUSH2 0x1178 DUP10 DUP4 DUP11 ADD PUSH2 0x10E9 JUMP JUMPDEST SWAP1 SWAP7 POP SWAP5 POP PUSH1 0x40 DUP9 ADD CALLDATALOAD SWAP2 POP DUP1 DUP3 GT ISZERO PUSH2 0x1191 JUMPI PUSH1 0x0 DUP1 REVERT JUMPDEST POP PUSH2 0x119E DUP9 DUP3 DUP10 ADD PUSH2 0x10E9 JUMP JUMPDEST SWAP7 SWAP10 SWAP6 SWAP9 POP SWAP4 SWAP7 POP SWAP3 SWAP5 SWAP4 SWAP3 POP POP POP JUMP JUMPDEST PUSH1 0x0 PUSH1 0x20 DUP3 DUP5 SUB SLT ISZERO PUSH2 0x11C1 JUMPI PUSH1 0x0 DUP1 REVERT JUMPDEST PUSH2 0x11CA DUP3 PUSH2 0x1055 JUMP JUMPDEST SWAP4 SWAP3 POP POP POP JUMP JUMPDEST PUSH4 0x4E487B71 PUSH1 0xE0 SHL PUSH1 0x0 MSTORE PUSH1 0x11 PUSH1 0x4 MSTORE PUSH1 0x24 PUSH1 0x0 REVERT JUMPDEST DUP1 DUP3 MUL DUP2 ISZERO DUP3 DUP3 DIV DUP5 EQ OR PUSH2 0xF20 JUMPI PUSH2 0xF20 PUSH2 0x11D1 JUMP JUMPDEST PUSH1 0x0 PUSH1 0x20 DUP3 DUP5 SUB SLT ISZERO PUSH2 0x1210 JUMPI PUSH1 0x0 DUP1 REVERT JUMPDEST POP MLOAD SWAP2 SWAP1 POP JUMP JUMPDEST PUSH1 0x0 PUSH1 0x20 DUP3 DUP5 SUB SLT ISZERO PUSH2 0x1229 JUMPI PUSH1 0x0 DUP1 REVERT JUMPDEST DUP2 MLOAD DUP1 ISZERO ISZERO DUP2 EQ PUSH2 0x11CA JUMPI PUSH1 0x0 DUP1 REVERT JUMPDEST PUSH1 0x0 DUP3 PUSH2 0x1256 JUMPI PUSH4 0x4E487B71 PUSH1 0xE0 SHL PUSH1 0x0 MSTORE PUSH1 0x12 PUSH1 0x4 MSTORE PUSH1 0x24 PUSH1 0x0 REVERT JUMPDEST POP DIV SWAP1 JUMP JUMPDEST DUP2 DUP2 SUB DUP2 DUP2 GT ISZERO PUSH2 0xF20 JUMPI PUSH2 0xF20 PUSH2 0x11D1 JUMP JUMPDEST PUSH4 0x4E487B71 PUSH1 0xE0 SHL PUSH1 0x0 MSTORE PUSH1 0x32 PUSH1 0x4 MSTORE PUSH1 0x24 PUSH1 0x0 REVERT JUMPDEST DUP1 DUP3 ADD DUP1 DUP3 GT ISZERO PUSH2 0xF20 JUMPI PUSH2 0xF20 PUSH2 0x11D1 JUMP JUMPDEST PUSH1 0x0 PUSH1 0x1 DUP3 ADD PUSH2 0x12A9 JUMPI PUSH2 0x12A9 PUSH2 0x11D1 JUMP JUMPDEST POP PUSH1 0x1 ADD SWAP1 JUMP INVALID SWAP12 PUSH24 0x9B17422D0DF92223018B32B4D1FA46E071723D6817E2486D STOP EXTCODESIZE 0xEC 0xC5 PUSH0 STOP LOG2 PUSH5 0x6970667358 0x22 SLT KECCAK256 0x2B 0xC2 0xD6 0xD7 PREVRANDAO PUSH29 0x3A5571F407659FC0AA721D3708A6EFBF4A8009EEFB73B4FD28BD64736F PUSH13 0x63430008140033000000000000 "},"methodIdentifiers":{"createRace(bytes32)":"5154a115","distributeReward(address,uint256)":"1ec8bb8c","distributeRewards(bytes32,address[],uint256[])":"c22c9b4a","enterRace(bytes32)":"fa5618a6","entryFeeCoins()":"77482846","gameCoin()":"3b1ce35e","getParticipants(bytes32)":"0b0235be","getRacePool(bytes32)":"423e8434","hasEntered(bytes32,address)":"89799d8d","hasUserEntered(bytes32,address)":"ffe27f9d","owner()":"8da5cb5b","platformFeePercent()":"8c639a85","raceParticipants(bytes32,uint256)":"70d2b179","racePools(bytes32)":"bd0e32a5","renounceOwnership()":"715018a6","setEntryFee(uint256)":"eb770d0c","setPlatformFee(uint256)":"12e8e2c3","transferOwnership(address)":"f2fde38b","withdrawPlatformFees(uint256)":"6aa21416"}}}}}